S00C000052544F532E73726563D0
S11300000C942A000C943C000C943C000C943C008E
S11300100C943C000C943C000C943C000C943C006C
S11300200C943C000C943C000C943C000C94C900CF
S11300300C943C000C943C000C943C000C943C004C
S11300400C943C000C943C000C943C000C943C003C
S11300500C943C0011241FBECFE5D8E0DEBFCDBF19
S113006020E0A0E6B0E001C01D92A137B207E1F79D
S11300700E944C000C940C010C94000085B3805831
S113008085BB089595B384E0892785BB089592B311
S113009088E0892782BB08958FEF84BB81BB0E94CF
S11300A0AC0020E04EE350E068EE73E080E00E9494
S11300B0B60021E042E450E060ED77E081E00E9488
S11300C0B60022E047E450E068EB7BE082E00E9467
S11300D0B600FFCF0F931F93CF93C0E037C00C2F10
S11300E010E0F801EE0FFF1FEE0FFF1FE00FF11FEE
S11300F0EE59FF4F208130E08091600090916100C3
S11301008217930710F18091600090916100F801CB
S1130110EE0FFF1FEE0FFF1FE00FF11FEE59FF4F11
S1130120618172810E94F8002817390771F4F8017F
S1130130EE0FFF1FEE0FFF1F0E0F1F1FF801EE59EA
S1130140FF4F0380F481E02D0995CF5FC33038F26F
S1130150CF911F910F91089580EF82BF85E083BFF7
S113016081E089BF8FB780688FBF0895833080F4A2
S113017090E0FC01EE0FFF1FEE0FFF1F8E0F9F1F7D
S1130180FC01EE59FF4F72836183548343832083C0
S113019008951F920F920FB60F9211242F933F933D
S11301A04F935F936F937F938F939F93AF93BF937B
S11301B0EF93FF9380EF82BF0E946A0080916000FA
S11301C09091610001969093610080936000FF918B
S11301D0EF91BF91AF919F918F917F916F915F91BB
S11301E04F913F912F910F900FBE0F901F90189534
S11301F0AA1BBB1B51E107C0AA1FBB1FA617B70749
S113020010F0A61BB70B881F991F5A95A9F7809564
S10F02109095BC01CD010895F894FFCF37
S9030000FC
